:1000000000308A00292800000A108A100A1182078D
:10001000C034F934A434B034993492348234F8348E
:10002000803490342230840083130008031926287A
:100030000130F800F701F70B1B28F80B1A284A309B
:10004000F700F70B21282428800B18288A110A12A0
:100050004A2803081F398300A00183161F149F1428
:100060001F159F1107309C008313003086008312F8
:10007000A0012008093C031C4E2820080420A100F0
:10008000831686018312210886000430A100FA300D
:10009000A2001228A10B4728A00A3928382863009B
:02400E00313F40
:00000001FF
;PIC16F877A
;CRC=BB7C  CREATED="01-Feb-21 11:23"
