:1000000000308A00832800000A108A100A11820733
:10001000C034F934A434B034993492348234F8348E
:1000200080349034F801F901F701FA012D08031D1D
:100030001C282C08031936281030AE000310AA0D16
:10004000AB0DF70DFA0D2D087A02031D29282C0897
:100050007702031C32282C08F702031CFA032D0830
:10006000FA020314F80DF90DAE0B1E280800AB01BF
:100070002B08033C031C4E282A18402886104128D0
:100080008614831686100610831206108316061037
:10009000831206140310AA0CAB0A3828AB012B08F4
:1000A000073C031C652829185728861058288614F1
:1000B000831686100610831206108316061083120C
:1000C00006140310A90CAB0A4F28831606118312DD
:1000D00006118316061183120615080028308400C5
:1000E00083130008031982280130F800F701F70B89
:1000F0007728F80B76284A30F700F70B7D28802800
:10010000800B7428080003081F39830083161F140E
:100110009F141F159F1107309C0083130030860029
:100120008312A601A5012608273C031C2A29031DCA
:100130009D2825080F3C031C2A292608AB0025080A
:10014000AA000330AD00E830AC0012207808A1000E
:100150002608AB002508AA00AD016430AC001220CF
:100160007908A9007808A8007908AB007808AA00E7
:10017000AD010A30AC0012207708A2002608AB00BF
:100180002508AA00AD010A30AC0012207908A900A8
:100190007808A8007908AB007808AA00AD010A30F9
:1001A000AC0012207708A3002608AB002508AA009F
:1001B000AD010A30AC0012207708A4000130A7007E
:1001C0002708323C031C262921080420A800A90086
:1001D0000830AA0037200530A8006E20210804202E
:1001E000A800A900AA01372022080420A800A9001D
:1001F0000430AA0037200530A8006E202208042011
:10020000A800A900AA01372023080420A800A900FB
:100210000230AA0037200530A8006E2023080420F1
:10022000A800A900AA01372024080420A800A900DA
:100230000130AA0037200530A8006E2024080420D1
:10024000A800A900AA013720A70AE028A50A0319D7
:08025000A60A9328912863001F
:02400E00313F40
:00000001FF
;PIC16F877A
;CRC=3CBB  CREATED="02-Feb-21 18:33"
